{
  "contractName": "Leaf",
  "abi": [
    {
      "constant": false,
      "inputs": [
        {
          "name": "_public_key",
          "type": "uint256"
        },
        {
          "name": "_assetCode",
          "type": "bytes32"
        }
      ],
      "name": "getBalance",
      "outputs": [
        {
          "name": "",
          "type": "uint256"
        }
      ],
      "payable": false,
      "type": "function",
      "stateMutability": "nonpayable"
    },
    {
      "constant": false,
      "inputs": [
        {
          "name": "_public_key",
          "type": "uint256"
        },
        {
          "name": "_assetCode",
          "type": "bytes32"
        }
      ],
      "name": "removeBalanceFromAccount",
      "outputs": [],
      "payable": false,
      "type": "function",
      "stateMutability": "nonpayable"
    },
    {
      "constant": false,
      "inputs": [
        {
          "name": "_public_key",
          "type": "uint256"
        },
        {
          "name": "_assetCode",
          "type": "bytes32"
        },
        {
          "name": "_amount",
          "type": "uint256"
        }
      ],
      "name": "updateBalanceInAccount",
      "outputs": [],
      "payable": false,
      "type": "function",
      "stateMutability": "nonpayable"
    },
    {
      "constant": false,
      "inputs": [
        {
          "name": "_public_key",
          "type": "uint256"
        }
      ],
      "name": "createAccount",
      "outputs": [],
      "payable": false,
      "type": "function",
      "stateMutability": "nonpayable"
    },
    {
      "constant": false,
      "inputs": [
        {
          "name": "_public_key",
          "type": "uint256"
        },
        {
          "name": "_assetCode",
          "type": "bytes32"
        },
        {
          "name": "_amount",
          "type": "uint256"
        }
      ],
      "name": "addBalanceToAccount",
      "outputs": [],
      "payable": false,
      "type": "function",
      "stateMutability": "nonpayable"
    },
    {
      "inputs": [],
      "payable": false,
      "type": "constructor",
      "stateMutability": "nonpayable"
    }
  ],
  "bytecode": "0x6060604052341561000f57600080fd5b336000806101000a81548173ffffffffffffffffffffffffffffffffffffffff021916908373ffffffffffffffffffffffffffffffffffffffff1602179055506105648061005e6000396000f30060606040526004361061006d576000357c0100000000000000000000000000000000000000000000000000000000900463ffffffff16806343a7d0a5146100725780639f671d3c146100b6578063a0ca0bba146100e6578063cab139151461011f578063ce77a81314610142575b600080fd5b341561007d57600080fd5b6100a060048080359060200190919080356000191690602001909190505061017b565b6040518082815260200191505060405180910390f35b34156100c157600080fd5b6100e4600480803590602001909190803560001916906020019091905050610218565b005b34156100f157600080fd5b61011d6004808035906020019091908035600019169060200190919080359060200190919050506102bf565b005b341561012a57600080fd5b6101406004808035906020019091905050610396565b005b341561014d57600080fd5b610179600480803590602001909190803560001916906020019091908035906020019091905050610430565b005b6000806000809054906101000a900473ffffffffffffffffffffffffffffffffffffffff1673ffffffffffffffffffffffffffffffffffffffff163373ffffffffffffffffffffffffffffffffffffffff161415156101d957600080fd5b60016000858152602001908152602001600020905080600101600084600019166000191681526020019081526020016000206001015491505092915050565b60008060009054906101000a900473ffffffffffffffffffffffffffffffffffffffff1673ffffffffffffffffffffffffffffffffffffffff163373ffffffffffffffffffffffffffffffffffffffff1614151561027557600080fd5b600160008481526020019081526020016000209050806001016000836000191660001916815260200190815260200160002060008082016000905560018201600090555050505050565b60006102c9610507565b6000809054906101000a900473ffffffffffffffffffffffffffffffffffffffff1673ffffffffffffffffffffffffffffffffffffffff163373ffffffffffffffffffffffffffffffffffffffff1614151561032457600080fd5b60016000868152602001908152602001600020915060408051908101604052808560001916815260200184815250905080826001016000866000191660001916815260200190815260200160002060008201518160000190600019169055602082015181600101559050505050505050565b61039e610524565b6000809054906101000a900473ffffffffffffffffffffffffffffffffffffffff1673ffffffffffffffffffffffffffffffffffffffff163373ffffffffffffffffffffffffffffffffffffffff161415156103f957600080fd5b6020604051908101604052808381525090508060016000848152602001908152602001600020600082015181600001559050505050565b610438610507565b60008060009054906101000a900473ffffffffffffffffffffffffffffffffffffffff1673ffffffffffffffffffffffffffffffffffffffff163373ffffffffffffffffffffffffffffffffffffffff1614151561049557600080fd5b60408051908101604052808560001916815260200184815250915060016000868152602001908152602001600020905081816001016000866000191660001916815260200190815260200160002060008201518160000190600019169055602082015181600101559050505050505050565b604080519081016040528060008019168152602001600081525090565b6020604051908101604052806000815250905600a165627a7a723058200f96d2edf724a1bcca9c6fd8ff0822fd5810f5492c52313f989c01ec66d5e9170029",
  "source": "pragma solidity ^0.4.13;\n\n// contract functionality\n// contract structure\n// balance structure\n// List of accounts\n// allow a new balance to be added to an account\n// allow a balance to be updated to an account\n// allow a balance to be accessed by an account\n// create an account\n\ncontract Leaf {\n\n  address owner;\n\n  // some sort of list of all the accounts -> key'd by their public key\n\n  mapping(uint => Account) accounts;\n\n  // represents a stellar balance\n  struct Balance {\n    bytes32 assetCode;\n    // can you have a negative balance in stellar?\n    uint amount;\n  }\n\n  // an Account which contains a public key and a list of balances\n  struct Account {\n    // corresponds to a stellar public key\n    uint256 public_key;\n    mapping(bytes32 => Balance) balances;\n  }\n\n  modifier onlyOwner(){\n   if (msg.sender != owner) revert();\n   _;\n }\n\n  function Leaf(){\n    owner = msg.sender;\n  }\n\n  // create a new Account\n  // but if account already exists throw an error\n  function createAccount(uint256 _public_key) onlyOwner {\n    Account memory a = Account(_public_key);\n    accounts[_public_key] = a;\n  }\n\n  // add a balance to an account\n  function addBalanceToAccount(uint256 _public_key, bytes32 _assetCode, uint256 _amount) onlyOwner {\n    Balance memory balance = Balance(_assetCode, _amount);\n    // check to make sure Account Id exists in accounts\n    Account storage a = accounts[_public_key];\n    a.balances[_assetCode] = balance;\n  }\n\n  // updates a given balance for an account\n  function updateBalanceInAccount(uint256 _public_key, bytes32 _assetCode, uint _amount) onlyOwner{\n    Account storage a = accounts[_public_key];\n    Balance memory balance = Balance(_assetCode, _amount);\n    a.balances[_assetCode] = balance;\n  }\n\n  // return the balance of a specific account, assetcode\n  function getBalance(uint256 _public_key, bytes32 _assetCode) onlyOwner returns (uint){\n    Account storage a = accounts[_public_key];\n    //require(_index <= a.balances.length);\n    // require that the access code is in the mapping\n    return a.balances[_assetCode].amount;\n  }\n\n  function removeBalanceFromAccount(uint256 _public_key, bytes32 _assetCode) onlyOwner {\n    Account storage a = accounts[_public_key];\n    delete a.balances[_assetCode];\n  }\n\n  /*function deleteAccount(uint256 _public_key) onlyOwner {\n      delete accounts[_public_key];\n  }*/\n}\n",
  "sourcePath": "/Users/BreckStodghill/workspace/leaf/pcrud-ethereum/contracts/Leaf.sol",
  "compiler": {
    "name": "solc",
    "version": "0.4.18+commit.9cf6e910.Emscripten.clang"
  },
  "schemaVersion": "1.0.1",
  "updatedAt": "2017-11-20T15:51:44.395Z"
}