{
  "contractName": "Leaf",
  "abi": [
    {
      "constant": false,
      "inputs": [
        {
          "name": "_public_key",
          "type": "uint256"
        },
        {
          "name": "_assetCode",
          "type": "bytes32"
        }
      ],
      "name": "getBalance",
      "outputs": [
        {
          "name": "",
          "type": "uint256"
        }
      ],
      "payable": false,
      "type": "function",
      "stateMutability": "nonpayable"
    },
    {
      "constant": true,
      "inputs": [
        {
          "name": "_public_key",
          "type": "uint256"
        },
        {
          "name": "_assetCode",
          "type": "bytes32"
        }
      ],
      "name": "owner",
      "outputs": [
        {
          "name": "",
          "type": "address"
        }
      ],
      "payable": false,
      "type": "function",
      "stateMutability": "view"
    },
    {
      "constant": false,
      "inputs": [
        {
          "name": "_public_key",
          "type": "uint256"
        },
        {
          "name": "_assetCode",
          "type": "bytes32"
        },
        {
          "name": "_amount",
          "type": "uint256"
        }
      ],
      "name": "removeBalanceFromAccount",
      "outputs": [],
      "payable": false,
      "type": "function",
      "stateMutability": "nonpayable"
    },
    {
      "constant": false,
      "inputs": [
        {
          "name": "_public_key",
          "type": "uint256"
        },
        {
          "name": "_assetCode",
          "type": "bytes32"
        },
        {
          "name": "_amount",
          "type": "uint256"
        }
      ],
      "name": "updateBalanceInAccount",
      "outputs": [],
      "payable": false,
      "type": "function",
      "stateMutability": "nonpayable"
    },
    {
      "constant": false,
      "inputs": [
        {
          "name": "_public_key",
          "type": "uint256"
        },
        {
          "name": "_assetCode",
          "type": "bytes32"
        },
        {
          "name": "_amount",
          "type": "uint256"
        }
      ],
      "name": "createAccount",
      "outputs": [],
      "payable": false,
      "type": "function",
      "stateMutability": "nonpayable"
    },
    {
      "inputs": [
        {
          "name": "_public_key",
          "type": "uint256"
        },
        {
          "name": "_assetCode",
          "type": "bytes32"
        },
        {
          "name": "_amount",
          "type": "uint256"
        }
      ],
      "payable": false,
      "type": "function",
      "stateMutability": "nonpayable",
      "constant": false,
      "name": "addBalanceToAccount",
      "outputs": []
    },
    {
      "inputs": [],
      "payable": false,
      "stateMutability": "nonpayable",
      "type": "constructor"
    }
  ],
  "bytecode": "0x6060604052341561000f57600080fd5b336000806101000a81548173ffffffffffffffffffffffffffffffffffffffff021916908373ffffffffffffffffffffffffffffffffffffffff1602179055506105e98061005e6000396000f300606060405260043610610078576000357c0100000000000000000000000000000000000000000000000000000000900463ffffffff16806343a7d0a51461007d5780638da5cb5b146100c15780639f671d3c14610116578063a0ca0bba14610146578063cab139151461017f578063ce77a813146101a2575b600080fd5b341561008857600080fd5b6100ab6004808035906020019091908035600019169060200190919050506101db565b6040518082815260200191505060405180910390f35b34156100cc57600080fd5b6100d4610278565b604051808273ffffffffffffffffffffffffffffffffffffffff1673ffffffffffffffffffffffffffffffffffffffff16815260200191505060405180910390f35b341561012157600080fd5b61014460048080359060200190919080356000191690602001909190505061029d565b005b341561015157600080fd5b61017d600480803590602001909190803560001916906020019091908035906020019091905050610344565b005b341561018a57600080fd5b6101a0600480803590602001909190505061041b565b005b34156101ad57600080fd5b6101d96004808035906020019091908035600019169060200190919080359060200190919050506104b5565b005b6000806000809054906101000a900473ffffffffffffffffffffffffffffffffffffffff1673ffffffffffffffffffffffffffffffffffffffff163373ffffffffffffffffffffffffffffffffffffffff1614151561023957600080fd5b60016000858152602001908152602001600020905080600101600084600019166000191681526020019081526020016000206001015491505092915050565b6000809054906101000a900473ffffffffffffffffffffffffffffffffffffffff1681565b60008060009054906101000a900473ffffffffffffffffffffffffffffffffffffffff1673ffffffffffffffffffffffffffffffffffffffff163373ffffffffffffffffffffffffffffffffffffffff161415156102fa57600080fd5b600160008481526020019081526020016000209050806001016000836000191660001916815260200190815260200160002060008082016000905560018201600090555050505050565b600061034e61058c565b6000809054906101000a900473ffffffffffffffffffffffffffffffffffffffff1673ffffffffffffffffffffffffffffffffffffffff163373ffffffffffffffffffffffffffffffffffffffff161415156103a957600080fd5b60016000868152602001908152602001600020915060408051908101604052808560001916815260200184815250905080826001016000866000191660001916815260200190815260200160002060008201518160000190600019169055602082015181600101559050505050505050565b6104236105a9565b6000809054906101000a900473ffffffffffffffffffffffffffffffffffffffff1673ffffffffffffffffffffffffffffffffffffffff163373ffffffffffffffffffffffffffffffffffffffff1614151561047e57600080fd5b6020604051908101604052808381525090508060016000848152602001908152602001600020600082015181600001559050505050565b6104bd61058c565b60008060009054906101000a900473ffffffffffffffffffffffffffffffffffffffff1673ffffffffffffffffffffffffffffffffffffffff163373ffffffffffffffffffffffffffffffffffffffff1614151561051a57600080fd5b60408051908101604052808560001916815260200184815250915060016000868152602001908152602001600020905081816001016000866000191660001916815260200190815260200160002060008201518160000190600019169055602082015181600101559050505050505050565b604080519081016040528060008019168152602001600081525090565b6020604051908101604052806000815250905600a165627a7a72305820a3878a032870bd1323e8182e8d703abe6141dcbbb401b6943ff1061714ad8da50029",
  "source": "pragma solidity ^0.4.13;\n\n// contract functionality\n// contract structure\n// balance structure\n// List of accounts\n// allow a new balance to be added to an account\n// allow a balance to be updated to an account\n// allow a balance to be accessed by an account\n// create an account\n\ncontract Leaf {\n\n  address public owner;\n\n  // some sort of list of all the accounts -> key'd by their public key\n\n  mapping(uint => Account) accounts;\n\n  // represents a stellar balance\n  struct Balance {\n    bytes32 assetCode;\n    // can you have a negative balance in stellar?\n    uint amount;\n  }\n\n  // an Account which contains a public key and a list of balances\n  struct Account {\n    // corresponds to a stellar public key\n    uint256 public_key;\n    mapping(bytes32 => Balance) balances;\n  }\n\n  modifier onlyOwner(){\n   if (msg.sender != owner) revert();\n   _;\n }\n\n  function Leaf() {\n    owner = msg.sender;\n  }\n\n  // create a new Account\n  // but if account already exists throw an error\n  function createAccount(uint256 _public_key) onlyOwner {\n    Account memory a = Account(_public_key);\n    accounts[_public_key] = a;\n  }\n\n  // add a balance to an account\n  function addBalanceToAccount(uint256 _public_key, bytes32 _assetCode, uint256 _amount) onlyOwner {\n    Balance memory balance = Balance(_assetCode, _amount);\n    // check to make sure Account Id exists in accounts\n    Account storage a = accounts[_public_key];\n    a.balances[_assetCode] = balance;\n  }\n\n  // updates a given balance for an account\n  function updateBalanceInAccount(uint256 _public_key, bytes32 _assetCode, uint _amount) onlyOwner{\n    Account storage a = accounts[_public_key];\n    Balance memory balance = Balance(_assetCode, _amount);\n    a.balances[_assetCode] = balance;\n  }\n\n  // return the balance of a specific account, assetcode\n  function getBalance(uint256 _public_key, bytes32 _assetCode) onlyOwner returns (uint){\n    Account storage a = accounts[_public_key];\n    //require(_index <= a.balances.length);\n    // require that the access code is in the mapping\n    return a.balances[_assetCode].amount;\n  }\n\n  function removeBalanceFromAccount(uint256 _public_key, bytes32 _assetCode) onlyOwner {\n    Account storage a = accounts[_public_key];\n    delete a.balances[_assetCode];\n  }\n\n  /*function deleteAccount(uint256 _public_key) onlyOwner {\n      delete accounts[_public_key];\n  }*/\n}\n",
  "sourcePath": "/Users/BreckStodghill/workspace/leaf/pcrud-ethereum/contracts/Leaf.sol",
  "compiler": {
    "name": "solc",
    "version": "0.4.18+commit.9cf6e910.Emscripten.clang"
  },
  "schemaVersion": "1.0.1",
  "updatedAt": "2017-11-21T22:02:29.532Z"
}